:10000000C0150020393C0000913C0000913C0000EC
:10001000913C0000913C0000913C0000913C0000AC
:10002000913C0000913C0000913C0000F121000057
:10003000933C0000913C0000E12D000001220000F3
:10004000B9210000B9210000B9210000B921000048
:10005000B9210000B9210000B9210000B921000038
:10006000B9210000B9210000B9210000B921000028
:10007000B9210000B9210000B9210000B921000018
:10008000B9210000B9210000B9210000B921000008
:10009000B9210000B9210000B9210000B9210000F8
:1000A000B9210000B9210000B0B500AF044B1C001D
:1000B000044B1D002000290001F09EF9F6E7C04620
:1000C000304300004C430000F0B583B000AF38600F
:1000D00079607B681B681E007B681C687B685D68B4
:1000E000AC4211DC396823009A1B13005B019B189A
:1000F0001B01CA1880239B001900100003F0B0FCFC
:10010000AC4201D00134EDE7BD4603B0F0BDC046BE
:1001100080B500AFC04600F04DF8174B802292002A
:100120001A60164B01221A60154A164B1A6001F02C
:100130006FFD154B1B881BB201331AB2124B1A808C
:1001400002F0BAFE114B1B881BB201331AB20F4BDF
:100150001A800F4B1B881BB201331AB20C4B1A804A
:1001600001F06AF90B4B1B881BB201331AB2094B21
:100170001A80BD4680BDC046B80D0020B00D0020DD
:1001800028010020B40D002094000020E40000208D
:10019000060000200800002080B582B000AF044BAC
:1001A0007B60FFF7B5FFFFF77FFFBD4602B080BD64
:1001B0008843000080B500AF044B1900044B1A00BF
:1001C00008001100FFF780FFBD4680BD2801002018
:1001D0005443000080B582B000AF38607960BD46FE
:1001E00002B080BD80B582B000AF38607960BD4696
:1001F00002B080BD80B582B000AF38607960BD4686
:1002000002B080BD80B582B000AF0200FB1D1A7045
:10021000BB1D0A1C1A70FB1D1B78012B05D002D3D5
:10022000032B04D005E0002305E0012303E00223B3
:1002300001E001235B421800BD4602B080BDC0460C
:1002400080B582B000AF0200FB1D1A70BB1D0A1CF6
:100250001A70FB1D1B78022B05D0032B05D0002B39
:1002600005D1002305E0012303E0022301E001237F
:100270005B421800BD4602B080BDC04680B582B06A
:1002800000AF38607960BD4602B080BD80B584B0F3
:1002900000AFF860B96063467B6000231F2B12DC5F
:1002A000FA681900CA40D1B2BA681800C240D2B286
:1002B0004A40D2B201210A40D2B2002A01D0002322
:1002C00002E00133EAE701231800BD4604B080BD17
:1002D00080B586B000AFF860B9601900FB1D1A70D8
:1002E000BB1D0A1C1A702023FB187B61FB1D1A78AA
:1002F000BB1D1B785340DBB2002B01D0002322E052
:10030000FB1D1B78002B14D0FB681B681A00BB6810
:100310001B6819001423FB189C461000FFF7B6FF5A
:1003200003001A0001235340DBB2002B0AD0002344
:1003300009E0FB681B681A00BB681B689A4201D081
:10034000002300E001231800BD4606B080BDC04672
:1003500080B582B000AF78600A00FB1C1A70BD4601
:1003600002B080BD80B582B000AF38607960BD4614
:1003700002B080BD80B584B000AFF860B96063465C
:100380007B6000231F2B12DCFA681900CA40D1B22F
:10039000BA681800C240D2B24A40D2B201210A4023
:1003A000D2B2002A01D0002302E00133EAE70123A0
:1003B0001800BD4604B080BD80B586B000AFF860BF
:1003C000B9601900FB1D1A70BB1D0A1C1A7020238E
:1003D000FB187B61FB1D1A78BB1D1B785340DBB2F9
:1003E000002B01D0002322E0FB1D1B78002B14D032
:1003F000FB681B681A00BB681B6819001423FB18F4
:100400009C461000FFF7B6FF03001A00012353407B
:10041000DBB2002B0AD0002309E0FB681B681A003E
:10042000BB681B689A4201D0002300E0012318003A
:10043000BD4606B080BDC04680B582B000AF7860D2
:100440000A00FB1C1A70BD4602B080BD80B582B0A8
:1004500000AF38607960BD4602B080BD80B584B021
:1004600000AFF860B96063467B6000231F2B12DC8D
:10047000FA681900CA40D1B2BA681800C240D2B2B4
:100480004A40D2B201210A40D2B2002A01D0002350
:1004900002E00133EAE701231800BD4604B080BD45
:1004A00080B586B000AFF860B9601900FB1D1A7006
:1004B000BB1D0A1C1A702023FB187B61FB1D1A78D8
:1004C000BB1D1B785340DBB2002B01D0002322E080
:1004D000FB1D1B78002B14D0FB681B681A00BB683F
:1004E0001B6819001423FB189C461000FFF7B6FF89
:1004F00003001A0001235340DBB2002B0AD0002373
:1005000009E0FB681B681A00BB681B689A4201D0AF
:10051000002300E001231800BD4606B080BDC046A0
:1005200080B582B000AF78600A00FB1C1A70BD462F
:1005300002B080BD80B582B000AF38607960BD4642
:1005400002B080BD80B584B000AFF860B96063468A
:100550007B6000231F2B12DCFA681900CA40D1B25D
:10056000BA681800C240D2B24A40D2B201210A4051
:10057000D2B2002A01D0002302E00133EAE70123CE
:100580001800BD4604B080BD80B586B000AFF860ED
:10059000B9601900FB1D1A70BB1D0A1C1A702023BC
:1005A000FB187B61FB1D1A78BB1D1B785340DBB227
:1005B000002B01D0002322E0FB1D1B78002B14D060
:1005C000FB681B681A00BB681B6819001423FB1822
:1005D0009C461000FFF7B6FF03001A0001235340AA
:1005E000DBB2002B0AD0002309E0FB681B681A006D
:1005F000BB681B689A4201D0002300E00123180069
:10060000BD4606B080BDC04680B582B000AF786000
:100610000A00FB1C1A70BD4602B080BD80B582B0D6
:1006200000AF38607960BD4602B080BD80B584B04F
:1006300000AFF860B96063467B6000231F2B12DCBB
:10064000FA681900CA40D1B2BA681800C240D2B2E2
:100650004A40D2B201210A40D2B2002A01D000237E
:1006600002E00133EAE701231800BD4604B080BD73
:1006700080B586B000AFF860B9601900FB1D1A7034
:10068000BB1D0A1C1A702023FB187B61FB1D1A7806
:10069000BB1D1B785340DBB2002B01D0002322E0AE
:1006A000FB1D1B78002B14D0FB681B681A00BB686D
:1006B0001B6819001423FB189C461000FFF7B6FFB7
:1006C00003001A0001235340DBB2002B0AD00023A1
:1006D00009E0FB681B681A00BB681B689A4201D0DE
:1006E000002300E001231800BD4606B080BDC046CF
:1006F00080B582B000AF78600A00FB1C1A70BD465E
:1007000002B080BD80B582B000AF38607960BD4670
:1007100002B080BD80B584B000AFF860B9606346B8
:100720007B6000231F2B12DCFA681900CA40D1B28B
:10073000BA681800C240D2B24A40D2B201210A407F
:10074000D2B2002A01D0002302E00133EAE70123FC
:100750001800BD4604B080BD80B586B000AFF8601B
:10076000B9601900FB1D1A70BB1D0A1C1A702023EA
:10077000FB187B61FB1D1A78BB1D1B785340DBB255
:10078000002B01D0002322E0FB1D1B78002B14D08E
:10079000FB681B681A00BB681B6819001423FB1850
:1007A0009C461000FFF7B6FF03001A0001235340D8
:1007B000DBB2002B0AD0002309E0FB681B681A009B
:1007C000BB681B689A4201D0002300E00123180097
:1007D000BD4606B080BDC04680B582B000AF78602F
:1007E0000A00FB1C1A70BD4602B080BD80B582B005
:1007F00000AF38607960BD4602B080BD80B584B07E
:1008000000AFF860B96063467B6000231F2B12DCE9
:10081000FA681900CA40D1B2BA681800C240D2B210
:100820004A40D2B201210A40D2B2002A01D00023AC
:1008300002E00133EAE701231800BD4604B080BDA1
:1008400080B586B000AFF860B9601900FB1D1A7062
:10085000BB1D0A1C1A702023FB187B61FB1D1A7834
:10086000BB1D1B785340DBB2002B01D0002322E0DC
:10087000FB1D1B78002B14D0FB681B681A00BB689B
:100880001B6819001423FB189C461000FFF7B6FFE5
:1008900003001A0001235340DBB2002B0AD00023CF
:1008A00009E0FB681B681A00BB681B689A4201D00C
:1008B000002300E001231800BD4606B080BDC046FD
:1008C00080B582B000AF78600A00FB1C1A70BD468C
:1008D00002B080BD80B582B000AF78607B681B68D5
:1008E000012293431A007B681A607B681B6802220E
:1008F00013431A007B681A607B681B680C229343C1
:100900001A007B681A607B681B68F02293431A0008
:100910007B681A607B681B680E4A13401A007B686C
:100920001A607B681B680C4A13401A007B681A60C7
:100930007B681B68094A13401A007B681A607B6851
:100940001B689B039B0B1A007B681A60BD4602B0B4
:1009500080BDC046FFF8FFFFFF07FFFFFFFFFCFF62
:10096000F0B583B000AF386079607B681B681E000B
:100970007B681C687B685D68AC420BDC3A682300CE
:100980009B1B9B00D3181800FFF7A4FFAC4201D0BB
:100990000134F3E7BD4603B0F0BDC04680B582B078
:1009A00000AF78603960E023FF331A00024B11007A
:1009B000180002F007FFC0469443000080B582B0E3
:1009C00000AF78607B68E020C00084466344190073
:1009D000044B1A0008001100FFF7C2FFBD4602B029
:1009E00080BDC046A843000080B582B000AF38602B
:1009F0007960BD4602B080BD80B582B000AF78603E
:100A0000BD4602B080BDC04680B582B000AF786000
:100A10007B68FF21180002F00BFABD4602B080BDD2
:100A200080B584B000AF786039607B68FB6000F00F
:100A300003FA00F019F8BD4604B080BD80B582B05D
:100A400000AF786039607B68180002F0F9F93A6805
:100A50007B6811001800FFF7E3FF7B68180002F0C5
:100A600017FABD4602B080BDF0B597B002AF0C26B4
:100A7000BB196F4A1100180001F03CF96D49BB1910
:100A80000822180002F070FF031E1AD100F086FE43
:100A9000694B5C681B681A00230000F073FD0400BA
:100AA0000D0014203B18654A42CA42C360493A18F7
:100AB0006B4641CA41C322002B00080001F0F0F848
:100AC000B2E05F4B1C005F4B1D003C607D607B68AB
:100AD0001B687A685268934204DD5B4B0021180062
:100AE00002F070FEFB6459498A4204D1584B402100
:100AF000180002F067FE511CB964F96C7964F86C57
:100B0000B96C884203DDF96C0139396401E0B96CD4
:100B100039640132934206DC002B04DC4C4B40214B
:100B2000180002F04FFE3B68FB63FA6CBB6C9A4204
:100B300004DD474B4321180002F044FEB96CFA6B08
:100B40007B6CCB1AD35C002B04D13B6800211800CE
:100B500002F038FEFB6CBB63BB6C7B63BB6B3B631F
:100B60007B6BFB623B6BBB623A6BFB6A9A4203DDB9
:100B70003B6B013B7B6201E0FB6A7B623A6BFB6A89
:100B80009A4204DCFA6A3B6BD31A591C00E000213C
:100B9000BA6B7B6B9A4207DCBB6B002B04DC2C4BE3
:100BA0004B21180002F00EFE3A6BFB6A9A4206DCFB
:100BB000FA6A3B6BD31A0C330322934300E00823F9
:100BC00003330733DB08DB006A46D31A9D4602ABCA
:100BD00003339B089B003B623B6A3A6B1A603B6A9B
:100BE000FA6A5A603B6A08331A00FB6B10000A006D
:100BF000190002F0E5FE3B6A0833FB61BA6BFB6A41
:100C00009A4204DD124B4D21180002F0DBFDF96A17
:100C10003A6ABB6ACB1AD31800221A723B6A0833AD
:100C20000021180002F0CEFDBD4615B0F0BDC04653
:100C30004003002028470000380300203047000010
:100C4000F846000038470000244E0000FFFFFF7FF9
:100C500018470000F0B593B000AF4723FB180022FF
:100C60001A700826BB196A4A1100180001F042F8F0
:100C70006849BB190822180002F076FE031E00D155
:100C8000C3E04723FE18624B180001F03FF8030051
:100C900033704723FB181B7801225340DBB2002B33
:100CA00000D1B2E05C4B1C005C4B1D003C607D60E1
:100CB0007B681B687A685268934204DD584B0021B8
:100CC000180002F07FFD3B6456498A4204D1564B1E
:100CD0004021180002F076FD511CF963396CB963AC
:100CE000386CF96B884203DD396C0139796301E0B6
:100CF000F96B79630132934206DC002B04DC4A4B2A
:100D00004021180002F05EFD3B683B633A6CFB6BD0
:100D10009A4204DD444B4321180002F053FDF96B65
:100D20003A6BBB6BCB1AD35C002B04D13B68002120
:100D3000180002F047FD3B6CFB62FB6BBB62FB6A79
:100D40007B62BB6A3B627B6AFB617A6A3B6A9A425E
:100D500003DD7B6A013BBB6101E03B6ABB617A6AF0
:100D60003B6A9A4204DC3A6A7B6AD31A591C00E057
:100D70000021FA6ABB6A9A4207DCFB6A002B04DC9A
:100D8000294B4B21180002F01DFD7A6A3B6A9A42FA
:100D900006DC3A6A7B6AD31A0C330322934300E0E1
:100DA000082303330733DB08DB006A46D31A9D466A
:100DB0006B4603339B089B007B617B697A6A1A60F0
:100DC0007B693A6A5A607B6908331A003B6B1000F2
:100DD0000A00190002F0F4FD7B6908333B61FA6AEE
:100DE0003B6A9A4204DD104B4D21180002F0EAFCE8
:100DF000396A7A69FB69CB1AD31800221A727B69A7
:100E000008330021180002F0DDFCBD4613B0F0BD30
:100E100040030020284700004047000038470000FA
:100E2000244E0000FFFFFF7F1847000080B500AF91
:100E3000FFF710FFBD4680BD80B500AF4D4B1B686E
:100E400019004D4B1B6818004C4A0B009B005B18A7
:100E50001B18DB009B581A00494B4A498C466244D8
:100E60009200D358180000F095F8424B1B68190007
:100E7000414B1B681800414A0B009B005B181B1874
:100E8000DB00D31804331B681A003F4B3D498C46E6
:100E900062449200D358180000F0AEF8354B1B683E
:100EA000042B19D1334B00221A60334B1B68042BDF
:100EB00003D1314B00221A601CE02F4B1B68013319
:100EC000002B01DB042B04DD304B5621180002F00F
:100ED00079FC294A13600DE0264B1B680133002B77
:100EE00001DB042B04DD294B5921180002F06AFCB8
:100EF000204A13601F4B1B6819001F4B1B6818000A
:100F0000234A0B009B005B18D3181B5C002B2FD0CF
:100F1000184B1B681900184B1B681800174A0B0068
:100F20009B005B181B18DB009B581A00144B1549DB
:100F30008C4662449200D358180000F05DF80D4BC7
:100F40001B6819000C4B1B6818000C4A0B009B0017
:100F50005B181B18DB00D31804331B681A000A4BFC
:100F600008498C4662449200D358180000F012F8E9
:100F7000BD4680BD8C000020900000206C47000022
:100F80000C000020FFFFFF3F18000020604700001A
:100F90005400002080B584B000AF78607B681F2BC0
:100FA00004D9134B6B21180002F00CFCA023DB05C5
:100FB000104A944663441B68FB60FA687B68012111
:100FC00099400B00D943A023DB050A4884466344BB
:100FD0001B6818000B0013401800A023DB05054A0E
:100FE0009446634402001A60BD4604B080BDC0460A
:100FF000604700000405000080B584B000AF786051
:101000007B681F2B04D9124B7421180002F0DAFB05
:10101000A023DB050F4A944663441B68FB60F96814
:101020007B6801229A40A023DB050A48844663447A
:101030001B6818000B0013431800A023DB05054AAA
:101040009446634402001A60BD4604B080BDC046A9
:10105000604700000405000080B584B000AF7860F0
:1010600063463B60A023DA057B68C133FF339B00F6
:10107000D318FB607B681F2B04D9464B84211800D2
:1010800002F0A0FBA023DA057B68C133FF339B008D
:10109000D3181B681A00012313431A00A023D90593
:1010A0007B68C133FF339B00CB181A607B681F2B12
:1010B00004D9384B8421180002F084FBA023DA0500
:1010C0007B68C133FF339B00D3181B681A000223CF
:1010D00013431A00A023D9057B68C133FF339B005B
:1010E000CB181A607B681F2B04D92A4B8421180067
:1010F00002F068FBA023DA057B68C133FF339B0055
:10110000D3181B681A000C2313431A00A023D90517
:101110007B68C133FF339B00CB181A607B681F2BA1
:1011200004D91C4B8421180002F04CFBA023DA05E3
:101130007B68C133FF339B00D3181B681A00164B22
:1011400013401A00A023D9057B68C133FF339B00ED
:10115000CB181A607B681F2B04D90E4B8421180012
:1011600002F030FBA023DA057B68C133FF339B001C
:10117000D3181B681A00094B13401A00A023D90585
:101180007B68C133FF339B00CB181A60BD4604B0A7
:1011900080BDC04660470000FFF8FFFFFFFFFCFF77
:1011A000F0B585B000AF202308229446BC446344C8
:1011B0007B600124032C18DC25001C4EAB199A001F
:1011C0001B4BD318BB601A4BAA199200D3583A1D77
:1011D00094461800FFF740FF154BAA199200D35808
:1011E0001800FFF7D7FE0134E4E70124092C18DCCE
:1011F00025000E4EAB199A000E4BD318FB600D4B19
:10120000AA199200D3583A1D94461800FFF724FFFC
:10121000084BAA199200D3581800FFF7EDFE0134CD
:10122000E4E7FFF721FCBD4605B0F0BDFFFFFF3F3F
:101230000C00002018000020B0B584B000AF0023DF
:10124000FB60FB68092B1FDC0023BB60BB68042B21
:1012500016DCFB6801331D00B868FA68B968144CE5
:101260002B009B005B19E3181C5C114813009B00CA
:101270009B18C318221C5A54BB680133BB60E5E7B6
:10128000FB680133FB60DCE700237B607B68042B99
:101290000ADC7B68064A3221D3185B1800221A70D8
:1012A0007B6801337B60F1E7BD4604B0B0BDC0464A
:1012B0005400002080B586B000AF78600A00FB1CA7
:1012C0001A70FB1C1B78213BFB60FB68002B5ADB70
:1012D000FB685D2B57DC00237B617B69042B53DCAF
:1012E00000233B613B69042B49DC7A687B69D31896
:1012F000002B40DB7A687B69D3180A2B3BDCFB6848
:10130000002B02DBFB685D2B04DD214BC4211800A0
:1013100002F058FAFA6839691E4813009B009B18BE
:10132000C3185A5C7B69072B05D87B69012199405A
:101330000B00DBB200E000231340DBB2002B1AD01D
:101340007A687B69D318002B04DB7A687B69D31831
:101350000A2B04DD0E4BC521180002F033FA7A681F
:101360007B69D31818003A690B4903009B001B18CE
:10137000CB18012199543B6901333B61B2E77B698A
:1013800001337B61A9E7C046BD4606B080BDC046BB
:10139000604700002045000054000020B0B584B034
:1013A00000AF0200FB1D1A70FB1D1B781900052001
:1013B000FFF780FF0123FB60FB68062B18DCFFF7BB
:1013C0003BFF00F0EBF904000D00962000F03AFA24
:1013D00002000B002000290000F0D4F803000C00EC
:1013E0001800210000F018FCFB680133FB60E3E704
:1013F000BD4604B0B0BDC046F0B585B000AF3860A2
:1014000079607B681A687B685B68150014001E00B1
:10141000B4420EDC396823005A1B8A18FA603A6815
:101420005B1BD35C1800FFF7B9FFB44201D0013455
:10143000F0E7BD4605B0F0BDB0B500AFE1239B00BD
:10144000180000F0DFF903000C00084A1360546034
:10145000074B0121180000F077FC064B1800FFF73E
:10146000D3FAFFF79DFEBD46B0BDC046380300204D
:10147000400300206803002070B50D00040019002F
:1014800010002B00220000F07DF870BDF0B5CE46B4
:10149000474680B5814685B00F00160000293CDD27
:1014A000002E34DB0123314C5B4202930394494606
:1014B000FA175140009111001300794001910098F2
:1014C0000199801A994100900191F317984633438E
:1014D00012D0404634004440220044464440414635
:1014E0002300121A8B410298039902F0F3FC009B2F
:1014F000019C8C4235D831D04A463B0030004146F1
:1015000002F008FD05B00CBC90469946F0BD802461
:101510000023240602930394C9E7002901D100287F
:10152000BED14B463B43BDD0002E11DD80240023AD
:101530002406029303944B46002BB8D180231B064C
:101540009F42B4D180240023240600930194BCE779
:101550000123064C5B4202930394ECE7009B834219
:10156000CAD9AC21024802F02DF9C046FFFFFF7F27
:101570007848000070B51400190002002000FFF741
:1015800085FF70BD70B5002B1ADBCC43C543A34269
:1015900011D90124154D6442A4185D41134EB54282
:1015A00016D820D0002554429D418D4210D817D026
:1015B0008018594170BDA342FAD1AA42E9D8F7E791
:1015C000002AE6D180242406A342E2D1002903DBCD
:1015D000D421074802F0F6F8802300221B06E7E733
:1015E0008442E5D9F4E70234DCD9F1E7FFFFFF7F5D
:1015F00078480000F8B516001F0004000D000A002E
:10160000A4197D415A406B40934302D42900200025
:10161000F8BDDB21014802F0D5F8C046784800004B
:10162000F8B5002B1ADB8B4213D90124174D644205
:10163000A4185D41154EB54220D823D00025544250
:101640009D41CE43C743B54218D815D0801A994161
:10165000F8BD8B42FAD18242E7D8F7E7002AE4D1FD
:1016600080242406A342E0D1002907DB8023002246
:101670001B0680185941EBE7BC42E7D9FB2104481F
:1016800002F0A0F80234D9D9F8E7C046FFFFFF7F87
:101690007848000010B58B4207D804D0801A9941D1
:1016A00000290FDB10BD8242F8D9121A8B4180212C
:1016B00009068B4206D803D0002150429941F1E738
:1016C000002AF9D012210248FF3102F07BF8C0460F
:1016D00078480000F8B51F00160004000D000B004C
:1016E000A41BBD413A007B406A40934302D42900C9
:1016F0002000F8BD8C210248490002F063F8C04682
:101700007848000010B5002805D0002342428B41E4
:101710001000190010BD80231B069942F5D18F21BE
:101720000148490002F04EF87848000010B5140056
:101730001C4313D0002809D002F0A8FB802200230C
:10174000120612184B41002B08D110BD802424062C
:10175000A142F1D1541CEFD15C1CEDD12A210248E9
:10176000FF3102F02FF8C0467848000010B5002A7B
:101770000DD0D317002802D002F088FB10BD8024C2
:101780002406A142F8D1541CF6D15C1CF4D1982156
:101790000148490002F016F878480000F0B5C64646
:1017A000002400B5164D2E686F6800F001FB2B6811
:1017B00001349E4210D0012C1FD04346F31A012B56
:1017C00016D8032C14D002242E686F6800F0F0FAAB
:1017D0002B6801349E42EED1B842BF410400002282
:1017E00000257F42BB1912196B411000190001E05E
:1017F0000020310004BC9046F0BDB046D3E7C0469F
:10180000DC00002010B5C1170A4A002302F082FB59
:10181000002908DB0023084A80185941074A0023A1
:1018200002F034FB10BD0123054A5B428018594188
:10183000F4E7C046A086010020A1070040420F0047
:10184000E05EF8FF10B5C1170B4A002302F062FBFF
:1018500000290ADBFA220023520080185941FA229B
:101860000023920002F012FB10BD0123034A5B42E9
:1018700080185941F3E7C046A08601000CFEFFFF27
:1018800010B53C220023C11702F044FB024A00239A
:1018900002F040FB10BDC046A0860100F0B5DE4658
:1018A00057464E4645469846CB17E0B59C460F0036
:1018B000914606001A00002392197B4185B00092E0
:1018C000019301006246DB1751400C009B46390032
:1018D0004B465140DB179A460D006346A41A9D41C2
:1018E000544020006146801A99414A46534602F00E
:1018F00011FB012204000D000023002F02DA012257
:101900005242D3174146C90F41444810C91702F04B
:1019100001FB24184D412700EE17774038002F00B7
:101920007740320033003900801A994102900391C8
:10193000029F310077403800801A99414346029057
:101940000391DF17019A5B464846514602F0E2FADE
:1019500032000023A4185D412A00EB17801859417A
:1019600042463B0002F092FA040080200D00002164
:10197000000600196941002914D11100029A039B45
:1019800000208018594142463B0002F07FFA0022B5
:1019900023008018594105B03CBC90469946A246A8
:1019A000AB46F0BDEA210248490001F00BFFC046FA
:1019B0007848000010B5C1170A4A002302F0AAFABD
:1019C000002908DB0023084A80185941074A0023F0
:1019D00002F05CFA10BD0123054A5B4280185941B0
:1019E000F4E7C046A08601000065CD1D00CA9A3B01
:1019F000009B32E2F0B583B000900191002911DB29
:101A00000025DC0FA4185D41E9078C466646600896
:101A100069103043009C019D0019694102F036FABB
:101A200003B0F0BD0021D80F80185941CC07A4465F
:101A3000664644084D10344300980199001BA941A3
:101A4000ECE7C04610B5C117024A002302F062FA63
:101A500010BDC046A0860100F0B5C6461D001400AA
:101A600000B51A4A002380462900200002F032FA0D
:101A7000164A002306000F0002F04CFAA94212D9C0
:101A80008023001BA9411B06994219D816D00023B8
:101A900042428B41414640460E604F608A60CB60B7
:101AA00004BC9046F0BDA94201D1A042E8D8200074
:101AB0002900064A002302F00DFAEBE70028E6D0E1
:101AC00012210348FF3101F07DFEC046A0860100CF
:101AD00078480000F0B585B00090019114001D1EFB
:101AE00011DB019A3B4B00999A4264D860D03A4A84
:101AF00000230098019902F00DFA22002B00FFF755
:101B000041FD05B0F0BD344A00232000290002F059
:101B1000BDF91A43531E9A41002316001F002E4A96
:101B200000232000290002F0B1F932003B00121A14
:101B30008B4101204042C117029203938018594102
:101B4000254A002302F0E6F92A000F0006002100D2
:101B5000280089197A413B0078405340834334D4AC
:101B600013001D480A000021FFF70CFD039B019A9A
:101B700004000D00934217DC039B019A93421FD08F
:101B8000029A039B00980199801A9941114B8B424C
:101B90000ADB06D0104A002302F0BCF900196941A3
:101BA000AFE70E4B8342F5D20D490E4801F00AFE15
:101BB0000A4B99429BD993210A48890001F002FE01
:101BC000029B009A9342DBD9EEE7DB21054801F046
:101BD000F9FDC046C5A70000A0860100471B47AC21
:101BE000430200007848000010B5024B024AFFF79C
:101BF00055FE10BDA086010000CA9A3B10B5024BED
:101C0000024AFFF74BFE10BD00CA9A3BA0860100B6
:101C100010B501F07FF910BD094B10B51A68926A32
:101C20001269002A08DC1B689C6A0723237200F0F3
:101C3000E9FF0123237210BD3321024801F0C2FDE8
:101C4000A8000020C8480000002000217047C046BE
:101C5000A020002140007047010010B584B0203161
:101C60000822040002A801F0ABFE0C4B1A68009297
:101C70000099029A8A4208D00023210023626362FD
:101C80000298039B984704B010BD5B68039A0193C8
:101C900000921300019A9342EED1F4E7D848000075
:101CA000F0B51D00114B14001A009B6885B003931A
:101CB00003990A9B08328B420FD00D4A72B603007B
:101CC0000AA92033C0C9C0C300922B00220000F033
:101CD0009BFD00F0B5FB05B0F0BD53680393039A7C
:101CE0000B9B9342E9D10022E8E7C046D8480000A8
:101CF000591C000010B5040072B60300203105C95C
:101D000005C300F09DFB200010BDC04670B5040067
:101D100072B600F0D1FD002305002362636200F07B
:101D20008FFB280070BDC04670B572B600F062FD32
:101D30000D00040000F084FB2900200070BDC046A7
:101D4000002343607047C046002901D0064B036062
:101D5000002200238260C36000230361436183612A
:101D6000036243627047C04658490000044A10B5F8
:101D7000136861331360034B1B68984710BDC0465E
:101D80007C0300209C00002010B5EFF31084012399
:101D900083F31088EFF30583FF201840103800F01C
:101DA000C3FA84F3108810BD012040427047C0463A
:101DB000EFF31083012282F31088034A106883F343
:101DC000108800217047C0467C030020802300213A
:101DD000014A5B00D150704700B00040EFF3108320
:101DE000012282F31088064A126883F31088054B9B
:101DF000984200D91800044B801818607047C046FC
:101E00007C030020FFFFFF7F780300200C4B0D4A6E
:101E100010B51860136B002B0DD10B498024116392
:101E200080210A4A0A484900240153500460535053
:101E30000123136010BD8121064801F0C3FCC04698
:101E40009C000020C80300206D1D000000B0004071
:101E500000E100E074490000012070470120704754
:101E60007047C0467047C0461F2330B5C417E50E03
:101E700042191A4023401B18521B5B110B280CD02F
:101E8000FF394C426141094C0901215400211F2AAC
:101E900008D9074A9B00995030BD8021002405488D
:101EA0004900445001219140F3E7C04600E400E0BE
:101EB00000E100E000B000400B2809D0054B185CA1
:101EC000C0B2002804D0802300095B00181A7047B4
:101ED000FF20FCE700E400E030BF7047FF384342DA
:101EE0005841000180F311887047C0467047C046D2
:101EF00010B572B603211B4A13688B43136080220E
:101F00000123D20502319360FF315358002BFCD0DE
:101F10001F21154A13681B0B1B030B43136001237E
:101F200012490A681A430A6011490A681A430A608A
:101F30006121104A1160EFF3108183F31088136858
:101F400081F310880C4A002194460C4A63441360C4
:101F500080230B4A5B00D1500A480022103100F068
:101F6000ABF910BD1805004008B5004004B30040AF
:101F700044B300407C030020FFFFFF7F7803002074
:101F800000B00040891D00001F23C11710B5CC0E02
:101F900002191A400B401B18121B5B110B2806D0AC
:101FA00000211F2A08D9064A9B00995010BD8021A4
:101FB000002404484900445001219140F3E7C04601
:101FC00000E100E000B00040FF384342584100010A
:101FD0007047C046002804D0802300095B00181A0F
:101FE0007047FF20FCE7C046B0B5C0B200AF06287E
:101FF00076D8464B80001B589F4638234448C15C26
:10200000002926D092B06C462500012339220835DC
:10201000010028002360626001F0D2FC002140230F
:102020002800E15401F0CEFB3D233A48C15C002971
:102030000FD094B06C46250001233E2208350100E4
:1020400028002360626001F0BBFC002145232800CA
:10205000E15401F0B7FB37232F48C15C0029F8D0C9
:1020600092B06C4625000123382208350100280073
:102070002360626001F0A4FC00213F232800E154AA
:1020800001F0A0FB43232548C15C0029E1D094B0B6
:102090006C462500012344220835010028002360F6
:1020A000626001F08DFC00214B232800E15401F017
:1020B00089FB36231A48C15C0029CAD092B06C460D
:1020C00025000123372208350100280023606260C3
:1020D00001F076FC00213E232800E15401F072FB60
:1020E0003B231048C15C0029B3D092B06C46250058
:1020F00001233C220835010028002360626001F0C2
:102100005FFC002143232800E154A2E7944900002A
:10211000A84A0000B4490000384A0000F449000011
:10212000704A0000E44A00007047C0467047C0464D
:10213000EFF310807047C04610B5EFF3088080F3CE
:102140000988EFF314800221084380F31488EFF329
:1021500014800E4B1B6883F308880D4A0D4B1168E1
:102160000B43136000230C4A13600C4A1360FF22D8
:102170000B4B12041A60E0230A4ADB0211680B437E
:10218000136000F023FE61B610BDC046C4030020FA
:1021900014ED00E01102000018ED00E01CED00E07D
:1021A00020ED00E024ED00E010B500F011FE10BDC0
:1021B000890008587047C0460A4B10B51B6C1020A8
:1021C0009847094B094C1A6823689A4201D000F0DD
:1021D000FFFD23685B6B62B6BFF34F8FBFF36F8F5A
:1021E00010BDC04680030020AC000020A8000020E5
:1021F00010B50B20FFF7F8FE89000A507047C04663
:1022000010B5FFF7D5FD0E4A13681B1A16D50D4BF6
:102210009C460D4B60441060DB6B0F2098470B4BC6
:102220000B4C1A6823689A4201D000F0D1FD236854
:102230005B6B62B6BFF34F8FBFF36F8F10BDC046AD
:1022400078030020FFFFFF7F80030020AC00002008
:10225000A800002070B5050088B000291CD0203BE4
:102260001C0004239C4300230193029303930493D3
:10227000059380235B04009207936A46230006912E
:1022800043CA43C343CA43C303CA03C3282200212A
:10229000280001F0BBFB2C6208B070BD044B054A5E
:1022A0005A609A60DA605A619A619A63DA6270479A
:1022B00080030020E91F0000014B8900C8507047CF
:1022C0008003002072B6704762B6BFF34F8FBFF332
:1022D0006F8F70477047C0467047C04670B54B1C43
:1022E000074D9B000C005959002905D15851110088
:1022F0002000FFF7B9FD70BD8121024801F062FAAC
:10230000C8030020344B0000054B1868054B1A68C1
:102310005523D35C002B00D070471B20FCE7C04640
:10232000A0000020A8000020F8B54E464546DE4635
:102330005746284BE0B51D6806006C6B0B2804D08F
:10234000254B195CC9B200293DD1FF239B46234B85
:1023500098461B689A465523EF5C214BFFB299467D
:102360001B68002B00D09847434601221E6055236E
:102370005946EA54280000F07FF862B6BFF34F8F49
:10238000BFF36F8F174A731C9B009B583000984710
:1023900072B64B461B68002B00D0984721002800DE
:1023A00000F06AF8434652461A605523FF3CEF544A
:1023B00063425C41240184F311883CBC90469946F9
:1023C000A246AB46F8BD802309095B005B1A9B4619
:1023D000BDE7C046A800002000E400E0A000002007
:1023E000D8000020C80300200C4B19680C4B1A6859
:1023F0005523D35CDBB2002B0BD01B290BD0094A31
:10240000904208D3084B9C460023624482425B41C1
:10241000DBB2180070470023FBE7C046A000002095
:10242000A8000020C00D0020FF030000014A024B5D
:102430001A607047B8110020C403002072B67047BC
:102440000A4B10B50A4C1A6823689A4206D0094B09
:102450001B68002B00D0984700F0BAFC23685B6B28
:1024600062B6BFF34F8FBFF36F8F10BDAC0000207B
:10247000A8000020D8000020436B70B58B4210D01C
:10248000174E41633468A0420CD0002C09D0236C55
:10249000984204D10DE01A6C82420BD01300002B3D
:1024A000F9D170BD046C002CFBD0636B8B4203DC54
:1024B000F7E72300026C1A64636B8B420CDD220089
:1024C00003E05D6B8D4203DD1A00136C002BF8D125
:1024D000036434601064E4E7046404003460E0E7FB
:1024E000AC000020044B054A1B681068C01A431E4C
:1024F0009841C0B27047C046AC000020A800002040
:10250000074B9C46074B60448000C358002B05D006
:1025100054229A5C002A01D1586B70470020FCE7D6
:10252000FFFFFF3FA80000202C23C356002B00D143
:102530000133054A016C9446044A63449B00995058
:10254000002303647047C046FFFFFF3FAC0000203C
:10255000054B1868026D1A6001225242D31782643B
:10256000C364002303657047B0000020014B186866
:102570007047C046AC000020074B9C46074B6044A8
:102580008000C358002B02D0986CD96C7047012092
:102590004042C117FAE7C046FFFFFF3FB0000020EE
:1025A0002C23C35630B5002B00D101331849194AEA
:1025B0008C46634499005458844217D05458002CD8
:1025C00015D0456B5458646BA54210DC525806E098
:1025D000834211D05C6B416B8C4205DB1A00136C9B
:1025E000002BF5D1002807D00364106430BD9B0098
:1025F000D158D0500164F9E7036C136405E05C6BBB
:10260000416B8C42F0DB1A001B6C002BF7D1EBE71F
:10261000FFFFFF3FAC0000202C23D35670B5002BEA
:1026200000D10133154C164DA44663449C002C592F
:102630009064D164002C15D0E66C8E4212D80ED076
:10264000236D002B07D0DD6C9E6CA9420FD91C00B6
:10265000236D002BF7D113650020226506E0A66CE0
:102660008642EDD901209B001465EA5070BDA94255
:10267000F1D1B042EFD91C00EAE7C046FFFFFF3FAF
:10268000B0000020014B18687047C046A800002029
:10269000F0B54546DE4657464E460022E0B50124D9
:1026A0006442E5179446543200279346884685B025
:1026B000394B0094019503901B6838482C22414601
:1026C0009246002B40D0DA6C9E6C8A4241D88A42F6
:1026D0004BD0009C019D1A6D9C64DD6491465A4666
:1026E0001F659F5452469A56002A00D101322C4E43
:1026F000B446624496008459A0460124A44643454A
:1027000031D088468159002919D0596B8C4681599E
:10271000496B8C4513DC865906E0934229D0556BF2
:10272000596B8D4205DB1600326C002AF5D1002B67
:102730001FD01A64336401224B469446BEE79200D0
:10274000815883501964F6E70126764232008A42A6
:10275000BDD96246002A1CD105B03CBC90469946C2
:10276000A246AB46F0BD4B46ABE7039A9642B0D9C2
:10277000EFE71A6C350032641E0005E0536B716B95
:102780008B4203DB1500126C002AF7D133002E00B8
:10279000CFE7014A1360DFE7B0000020AC00002063
:1027A000FFFFFF3F2C23C35630B5002B00D1013370
:1027B000026C416B002A02D0546B8C4200D030BDB9
:1027C000084D0949AC4663449B005A505A5803E0EF
:1027D000596B8C4203D11A00136C002BF8D103649F
:1027E0001064ECE7FFFFFF3FAC00002080200021D9
:1027F000400070470369002B02D0C16880687047B1
:1028000000200021FBE7C0460169F8B5069C0029BD
:1028100042D0284D41692E68864225D08669716173
:1028200000264169002901D087698F610021046178
:1028300041618161002C2CD001212C688260C36031
:102840000177002C34D0E168994210D802D1A168F8
:1028500091420CD86169002914D0CD688F689D42DF
:1028600010D80DD00C00F5E729600126DAE74461A5
:10287000A0612860012000F0F3F800F05FF9F8BDD6
:102880009742EFD9416163698461002B00D0986160
:102890006061002EF3D0EDE70461002CEFD0012140
:1028A000044D00262C688260C3600177002CCAD1D9
:1028B0004461DEE7BC000020036910B5002B13D093
:1028C000144A1368834211D0436982695361436992
:1028D000002B06D09A6100234361836103610120CC
:1028E00010BD83610361FAE70020F9E759691160BF
:1028F00000290CD09A698A6100225A619A611A6192
:10290000012000F0ADF800F019F90120E8E7996125
:102910001961F5E7BC000020002901D0054B0360D8
:10292000002200238260C36000230361436183614E
:102930007047C046B04B0000F0B54F464646D646FD
:10294000C0B51B4E814634680F00002C2BD0194BAC
:10295000FF211B68002598465B6B40469A46FFF7AF
:102960008BFD0EE0A1694B616369002B01D0A16969
:1029700099616561A5612561200090473468002C4C
:102980000DD0E368BB420AD806D03168226963697A
:10299000A142E7D13360E8E7A3684B45F5D951463A
:1029A0004046FFF769FD1CBC90469946A246F0BD23
:1029B000BC000020A8000020074B9C46074B604449
:1029C0008000C358002B02D09868D9687047012056
:1029D0004042C117FAE7C046FFFFFF3FBC0000209E
:1029E0007047C04601230360002343607047C04620
:1029F000F0B5C646002400B5164D2E686F68FFF787
:102A0000D7F92B6801349E4210D0012C1FD04346C9
:102A1000F31A012B16D8032C14D002242E686F68E9
:102A2000FFF7C6F92B6801349E42EED1B842BF4190
:102A30000400002200257F42BB1912196B411000CF
:102A4000190001E00020310004BC9046F0BDB04602
:102A5000D3E7C046DC000020002001217047C046BB
:102A60000E4B0F4AC31899008A58002A12D0906C56
:102A7000D16C0C4A9B009B58002B05D09A68DB68F0
:102A8000994202D91000190070479942FCD1904236
:102A9000FAD9F7E7012040420100EAE7FFFFFF3FD4
:102AA000B0000020BC000020F8B5CE464746002309
:102AB00080B51D4A1D4F1E483A607B60FFF7A6F99E
:102AC000FFF776F900241B4D68602E686B680134AF
:102AD0009846FFF76DF92B689E421BD0012C17D04A
:102AE0004B46F31A012B03D8032C01D00224ECE748
:102AF000002233003C687D6812196B410E492000AA
:102B00000A604B60FFF76AF90CBC90469946F8BD25
:102B1000B146DAE7404589410022040000254942D8
:102B20008B1912196B41E5E7F9FFFFDFC8000020A0
:102B3000FD2C0000DC000020D0000020F0B54F4646
:102B40004646D6460024C0B506000F002A4D2B6825
:102B5000013498466B689A46FFF72AF92B68984526
:102B60003ED0012C1AD043464A469B1A012B03D86B
:102B7000032C01D00224EAE7002243469F4211D8E9
:102B80000ED01E4C012163680022BB4214D8BB4208
:102B90001DD01CBC90469946A246F0BDC146D6E762
:102BA0009642EED930003900801A9941134C0A0040
:102BB00063680100BB42EAD9114B18685B68934215
:102BC00009D90800FFF70AF926606760E1E7236882
:102BD000B342DED9F0E79342F4D18842F2D9F0E76C
:102BE000504589414942414400220B000400002520
:102BF00012196B41C2E7C046DC000020D000002063
:102C0000C8000020F0B54646D6464F468046C0B5BF
:102C10000E0072B60024334D2F686B6801349A465B
:102C2000FFF7C6F82B689F424ED0012C3DD04B4693
:102C3000FB1A012B03D8032C01D00224ECE700245B
:102C40003D00294B1A68AE4231D954230221D15498
:102C5000283BD356002B00D101332449106C8C46FD
:102C6000234963449B0058500023404613643100BD
:102C7000FFF7D2FC002811D01E4B1B68002B2DD073
:102C8000986CD96C1C4B1B68002B05D09A68DB68CC
:102C9000994214D910001900FFF750FFFFF7D0FB3D
:102CA0001CBC90469946A246F0BDB946B4E7AE4278
:102CB00001D1A045C9D81000FFF774FDEEE7994295
:102CC000EAD19042E8D9E5E750459B415B42DD19E6
:102CD000002402000023A4185D41B2E70120404215
:102CE0000100CFE7DC000020A8000020FFFFFF3F2D
:102CF000AC000020B0000020BC000020F8B580230C
:102D00000026274A5B00D65072B601204042C11708
:102D1000244B254C1860596025686768FFF748F810
:102D2000874238D8606000222B0006000027B618C2
:102D30005F411E4B30001C685D683900FFF7FCFDE9
:102D400030003900FFF7A4FC194BA4197D411B6822
:102D5000002B05D09A6CDB6C9D4217D914001D0026
:102D6000144B1B68002B05D09A68DB689D4208D97C
:102D700014001D0029002000FFF7E0FEFFF760FBB4
:102D8000F8BD9D42F6D19442F4D9F1E79D42E7D1D6
:102D90009442E5D9E2E70135266060602560C2E72C
:102DA00000B00040D0000020DC000020C80000205F
:102DB000B0000020BC00002010B50C000300002271
:102DC000200000218018594110BDC0467047C04600
:102DD0008022024B52051A607047C04604ED00E0A5
:102DE0000F4AEFF3098C1368F0C344464D4656462C
:102DF0005F46F0C3644610C30A4B1B681360202271
:102E00009A181468A44610229A18F0CAA046A94637
:102E1000B246BB461A1CF0CA8CF309887047000002
:102E2000A8000020AC00002000230360436070472E
:102E30004B1C00D1FF310023016043608360704769
:102E400070B5050000F01CF98023C35804005E6BC8
:102E5000AB6883420FD02968B14210DB72B60A4BCF
:102E60001868FFF709FBFFF7EBFA6E60AC602369A7
:102E70000133236170BD5A21044800F0A3FC632193
:102E8000024800F09FFCC046A8000020D04B000084
:102E900010B5040000F0F4F80023A3606168036932
:102EA000013B036172B6034B1868FFF7E5FAFFF7C1
:102EB000C7FA10BDA800002010B500F02BF810BD17
:102EC000002343607047C046002303607047C0463C
:102ED000024B1B689A6A9823D0587047A8000020BC
:102EE00070B5002504AC2678079C25726372882390
:102EF000E2602561E1500433E050059A1433E65452
:102F0000103BE250069800F0A1FD9423E050012010
:102F100070BDC046F0B5C64600B54B4B84B01A78BC
:102F200004AF002A75D101321A70484B1A68013279
:102F300000D172E01A6800250223454C009300215D
:102F4000013B0394029501950020FFF7C9FF230080
:102F500080261833A3519C23A059E550E168984678
:102F600000F0B0F8A3599C628423E550394B1A68ED
:102F7000002A66D0414654501C6072B6364BE16858
:102F80001868FFF779FAFFF75BFA8022120194467E
:102F9000324B334A1C60334B01206344136000F012
:102FA00041FB314D01262B00683B2B6028686B6983
:102FB0002E49029380235B4298462B69A8440193D3
:102FC000012342465B42009600F09EF942462B6880
:102FD00080219A62A8232672E450103B002598466F
:102FE00009060020E55000F071FD4346E050204BFB
:102FF0001D605D601F4B1A6801320AD01B68012BEF
:1030000007D039231C48C35C002B08D1002100F0F5
:10301000D9FBBD4604BC9046F0BD7F228BE792B041
:1030200004AC266026003A230836010063603A2289
:10303000300000F0C5FC41230021E554300000F0D1
:10304000C1FB0E4A146097E7F8000020EC00002056
:103050003804002008010020A8000020FC00002007
:10306000F0040020F8040020780D0020D93500007D
:10307000F0000020E8000020E84B000004010020E0
:10308000014B1B68986A7047A80000209423C05821
:103090007047C04600230364036583657047C046DC
:1030A0002C23C0567047C0462C23C056002800D1A0
:1030B00001307047014B1B68986A7047A8000020D8
:1030C000406B704770B504000D00FFF7AFF9EFF3E8
:1030D000088080F30988EFF314800221084380F30D
:1030E0001488EFF31480384B1B6883F30888374A41
:1030F000374B11680B4313600023364A1360364A7E
:103100001360FF22354B12041A60E023344ADB02BD
:1031100011680B431360FFF759FE61B6FEF7E8FE36
:10312000FFF7C2FC72B62C230122E2542D4B6563DB
:103130001A681C602C4BA2651A682563944217D04C
:103140001A68002A2FD0616B1A68526B91422ADCF0
:103150001A6806E09C422AD0586B616B884205DBF6
:103160001A00136C002BF5D1002C20D023641464BA
:103170001E4B5422A3631E4B01204042C117E36340
:103180000023A3540132A3540132A3542365E36501
:103190002366184B553A1C60174BA064E1641A7003
:1031A000FFF74EF970BD1A681C602264E0E7236CDB
:1031B000136405E0586B616B8842D7DB1A001B6C07
:1031C000002BF7D1D2E7C046C403002014ED00E085
:1031D0001102000018ED00E01CED00E020ED00E021
:1031E00024ED00E0B4000020AC000020C015002059
:1031F000C0110020A8000020F900002070B52C2488
:10320000012505554163016322499B180C6808603C
:10321000214984650C68A04217D00C68002C28D086
:10322000456B0C68646BA54223DC0C6806E08842A1
:1032300023D04E6B456BAE4205DB0C00216C0029A0
:10324000F5D1002819D0016420648363C263002390
:10325000542201246442E51783540132835401321D
:1032600083540365C36503660C4B8464C5641860AE
:1032700070BD0C6808600464E7E7016C216405E038
:103280004E6B456BAE42DEDB0C00096C0029F7D1BA
:10329000D9E7C046B4000020AC000020A800002000
:1032A0008162704710B5010072B6034B1868FFF7D2
:1032B000E3F8FFF7C5F810BDA80000200F4B10B5CC
:1032C0001B6872B65622995C002914D15422012140
:1032D0009954283A9A56002A0BD00949186C8C4602
:1032E000084962449200505000221A64FFF7A8F87F
:1032F00010BD0132F1E700219954F7E7A800002042
:10330000FFFFFF3FAC000020F0B5C646002500B52A
:1033100088B004000EA8455772B60F9E0727B44622
:1033200010986044B8432537E55523636363344BF5
:103330001E681C60A665002D00D10135314E324B50
:10334000B4466544AF00DE59B44218D0DE59002EB1
:1033500045D0666BB046DE59766BB0453FDCDD5933
:1033600006E09C4240D05E6B676BBE4205DB1D00F1
:103370002B6C002BF5D1002C36D023642C640F9BD2
:103380005425E363002301267642F717A0636355B3
:103390000135635501356355A664E7642365E3652C
:1033A0002366002915D00193029303930493059398
:1033B0008023203805005B04009206912022694694
:1033C000079300F0FDFA28220021200000F01EFBE8
:1033D0002562FFF735F808B004BC9046F0BDAD009B
:1033E0005F595C512764CAE7236C2B6405E05E6B70
:1033F000676BBE42C1DB1D001B6C002BF7D1BCE725
:10340000B4000020FFFFFF3FAC000020014B186814
:103410007047C046A800002070B572B65423C25C45
:10342000012A05D056230122C254FFF709F870BDC6
:103430000022C254283BC356002B00D10133184947
:10344000184A8C46634499005458A042EDD0545811
:10345000002C20D0456B5458646BA5421BDC52589D
:1034600006E0984209D05C6B416B8C4210DB1A007D
:10347000136C002BF5D100280AD1036C136405E00E
:103480005C6B416B8C4203DB1A001B6C002BF7D189
:1034900003641064C9E79B00D158D0500164C4E7AD
:1034A000FFFFFF3FAC0000207047C0467047C0469A
:1034B0007047C046014B1B68986A7047A8000020FF
:1034C00010B5FFF7FBFE10BD054B10B51B689C6ADD
:1034D00007232372FFF796FB0123237210BDC0461A
:1034E000A8000020F0B5C646002400B5164D2E6891
:1034F0006F68FEF75DFC2B6801349E4210D0012CF2
:103500001FD04346F31A012B16D8032C14D00224E3
:103510002E686F68FEF74CFC2B6801349E42EED19A
:10352000B842BF410400002200257F42BB19121996
:103530006B411000190001E00020310004BC9046EE
:10354000F0BDB046D3E7C046DC000020802310B5B4
:10355000C058FFF761FF10BD10B572B6034B186875
:10356000FEF78AFFFEF76CFF10BDC046A8000020E2
:103570008023C358586B70478023C258543BD056A1
:103580007047C0468023C258543BD056002800D113
:10359000013070478023C0587047C0468422002104
:1035A00010B58150094A0300116800290BD09C20F6
:1035B0000B50136072B6064AD9681068FEF75CFFBC
:1035C000FEF73EFF10BD03490860F2E70801002046
:1035D000A800002004010020034B10B51B68986A66
:1035E000FFF7DCFF30BFFDE7A80000200120704797
:1035F00070B505000400942684B0803508AA183000
:10360000127828602868A65952B202969026A659C8
:10361000009201962200FFF777FE01202B689C6242
:1036200004B070BD70B58021B82484B04443090152
:10363000029114490300411813482600C9020918D1
:10364000019101220221114DB83E76190091039695
:10365000524200210E48FFF743FC2B002200383B6A
:10366000A03AE31852191A602B191A00103A166082
:103670000122B03D6419227000221C3B1A6004B084
:1036800070BDC046FFFF1F00F8040020F80C0020AA
:10369000D935000070B5B8244443FFF7C3FF0B4E83
:1036A000250031190B000A00383DAD19243B283A9A
:1036B000AC3928681B6812680968FFF79FFDB83CA1
:1036C0002B68A4199C620020FFF786FFF80C0020ED
:1036D0000300F0B5802500269C27040018334351D1
:1036E000C65185B04059E168FFF7ECFC63599C6214
:1036F0008423E650194B1A68002A2BD0D4511C6041
:1037000072B6174BE1681868FEF7B6FEFEF798FE32
:10371000802212019446134B134A1C60134B012064
:1037200063441360FFF77EFF114C2300683B236066
:1037300020686369250002932369803D019301237A
:103740002A0000930B49023BFFF7DEFD23689D62D0
:1037500005B0F0BD084A1460D1E7C046080100205A
:10376000A8000020FC000020F0040020F804002045
:10377000780D0020D93500000401002010B5FEF7B7
:10378000C3FD1B3843425841C0B210BD80B582B062
:1037900000AF7860094B1B68002B05D0074B1B68F6
:1037A0009C217A685A5002E0054B7A681A60034BF4
:1037B0007A681A60BD4602B080BDC046080100208C
:1037C0000401002070B51A4D04000E0019482900AC
:1037D00000F0AAF82900002E19D00831164800F090
:1037E0005DF8164BE51804E0013400F02BF8AC420C
:1037F00002D020780028F7D13A2000F023F83000DA
:1038000000F05CF8012000F03FF800F0A5F810315E
:103810000B4800F043F8094BE51804E0013400F0D0
:1038200011F8AC42EED020780028F7D1EAE7C04684
:10383000A44D0000BC4D0000D44D0000FFFFFF7FF1
:10384000F44D00000F4B10B51B780400002B09D07D
:103850000A2C0BD000F09AF90028FBD0200000F0D1
:103860009FF910BD00F0ACF90A2CF3D100F0E2F999
:103870000028EFD000F08AF90028FBD00D2000F0DE
:103880008FF9E7E72601002070B505000024013418
:103890000A20FFF7D7FFA542F9D170BD0B684A682F
:1038A00070B5934209DC0400451CAD18ED1A207870
:1038B0000134FFF7C7FFAC42F9D170BDF0B5C64681
:1038C00000B5C217141A86B0804654400C25302724
:1038D00000E01D0020000A2100F0D2FA601A0E005C
:1038E0000A2100F0E7F96B1E03AA023D5219BE1B24
:1038F000040016701800002CEBD14146002904DAB0
:103900002D212B002800013A117003AA944601933F
:103910000B230138604401A90293FFF7BFFF06B0F3
:1039200004BC9046F0BDC04610B5FFF7B7FF0A20B3
:10393000FFF788FF10BDC046014B024A1A60FEE740
:103940000CED00E00400FA05014B024A1A60FEE7A4
:103950000CED00E00400FA05014B024A1A60FEE794
:103960000CED00E00400FA050B00034330B59B07A3
:1039700001D1032A1AD8002A11D004780B789C426E
:1039800019D31BD81218030006E05C18241A1D78FE
:103990002478A5420FD311D801339A42F5D10020E3
:1039A00030BD043A04300431032AE4D903680C68BA
:1039B000A342F6D0E1E701204042F1E70120EFE722
:1039C00070B5060003240E4305000B00344011D1EE
:1039D000032A0FD9131F9B085D1CAD000E59065119
:1039E0000434AC42FAD19B000431C5185B180321A2
:1039F00004350A40002A07D01900D218ED1A0B78B6
:103A00006B5401318A42FAD170BDC046FF23194080
:103A100070B50300CCB285070FD10D020D43290408
:103A20002943032A09D9151FAD08AD00061DAD199C
:103A300002C3AB42FCD103210A40D118002A03D0B3
:103A40001C7001338B42FBD170BDC04680231B0626
:103A5000984200D0704780204001FBE77047C04685
:103A60000160704710B50400FFF732FA114B9C4219
:103A700018DC07230734E21713401B1942688168DA
:103A8000DB10DB00891AC91A04D4D3180F32436043
:103A9000801810BD0168891AC91A013106DBD318D4
:103AA0008360F3E774210448FFF78CFE832102480A
:103AB000FFF788FEF7FFFF7F584E000010B5FFF7B5
:103AC00007FA80680138C11710BDC04610B500283C
:103AD00003D001234360836010BD80231B069942FD
:103AE00007D0134B1B68002BF6D0EA211148FFF7D3
:103AF00069FE0F4B1A68002AF4DD0F491C680A683A
:103B0000A242EFDA1B680D4B501C1B6808600C4981
:103B10000868D943C9170B40590FDB004907DB0878
:103B20000B43072107338B43103353431818D0E757
:103B3000B00D0020584E000020010020B80D0020DC
:103B4000B40D002010B5FFF7C3F9406810BDC046A2
:103B500010B50400FFF7BCF9446010BD044B002110
:103B600018688423034A5B00C0B2D1507047C04636
:103B700018250040002000408423034A5B00D058F1
:103B8000431E9841C0B27047002000408E23034A74
:103B90005B00D058431E9841C0B2704700200040DF
:103BA0008E230021044A5B00D150044AFF31136880
:103BB0008B43184310607047002000401C250040D4
:103BC000144B154A154910B59950182101240E209F
:103BD000134A9950134A01319950134A1168A1436D
:103BE0001160116881431160104907380A688243E7
:103BF000033802430A608421002249005A501431DC
:103C00005A5000201C609C60FFF7CAFF084B1C70D4
:103C100010BDC046002000402405000000E0D70190
:103C20000C050000140500006C2500400025004034
:103C300026010020012070470D480E490E4A002938
:103C400005D014680460043004320139F9D10B48FE
:103C50000B490022002903D0026004300139FBD156
:103C6000084800688546FCF797FAFFF76DFEFEE707
:103C7000000000204A000000684E000028010020DB
:103C80002603000000000000FEE7FEE7FEE7FEE777
:103C9000FEE70EF00F000D2802D0EFF3088001E0E0
:103CA000EFF3098000F11800016801F102010160E1
:103CB0007047000003460B437FD4002243088B4229
:103CC00074D303098B425FD3030A8B4244D3030BA3
:103CD0008B4228D3030C8B420DD3FF22090212BA68
:103CE000030C8B4202D31212090265D0030B8B42E4
:103CF00019D300E0090AC30B8B4201D3CB03C01ACE
:103D00005241830B8B4201D38B03C01A5241430BA8
:103D10008B4201D34B03C01A5241030B8B4201D398
:103D20000B03C01A5241C30A8B4201D3CB02C01A03
:103D30005241830A8B4201D38B02C01A5241430A7B
:103D40008B4201D34B02C01A5241030A8B4201D36A
:103D50000B02C01A5241CDD2C3098B4201D3CB0111
:103D6000C01A524183098B4201D38B01C01A5241C0
:103D700043098B4201D34B01C01A524103098B42C4
:103D800001D30B01C01A5241C3088B4201D3CB00AF
:103D9000C01A524183088B4201D38B00C01A524192
:103DA00043088B4201D34B00C01A5241411A00D242
:103DB00001465241104670475DE0CA0F00D04942AB
:103DC000031000D34042534000229C4603098B421B
:103DD0002DD3030A8B4212D3FC22890112BA030AA3
:103DE0008B420CD3890192118B4208D38901921125
:103DF0008B4204D389013AD0921100E08909C309AA
:103E00008B4201D3CB01C01A524183098B4201D3AB
:103E10008B01C01A524143098B4201D34B01C01A96
:103E2000524103098B4201D30B01C01A5241C3080E
:103E30008B4201D3CB00C01A524183088B4201D37D
:103E40008B00C01A5241D9D243088B4201D34B0098
:103E5000C01A5241411A00D20146634652415B10DA
:103E6000104601D34042002B00D5494270476346BB
:103E70005B1000D3404201B5002000F005F802BD00
:103E80000029F8D016E770477047C046002B15D1BF
:103E9000002A13D1002906DB01DC002806D000200F
:103EA000C043410802E080210906002007B402480F
:103EB00001A14018029003BDD1FFFFFF03B4684683
:103EC00001B5029800F012F9019B9E4602B00CBCAD
:103ED0007047C046002B11D1002A0FD1002900D114
:103EE000002802D00021C943081C07B4024802A1DF
:103EF0004018029003BDC04691FFFFFF03B468461F
:103F000001B5029800F030F8019B9E4602B00CBC4F
:103F10007047C046F0B5CE46474615042D0C2E001E
:103F200080B50704140C3F0C9946030C7E435D4397
:103F3000674363437F19340CE4199C46A54203D9B7
:103F400080235B029846C4444B4643435143250CAF
:103F500036046544360C2404A4195B195918200052
:103F60000CBC90469946F0BDF0B54F464646D64645
:103F7000C0B5040082B00D00914698468B422FD800
:103F80002CD04146484600F0CDF82900060020001C
:103F900000F0C8F8331A9C46203B9A4600D576E0DC
:103FA0004B46524693401F004B46624693401E00CC
:103FB000AF4228D825D05346A41BBD41002B00DAC0
:103FC0007BE000220023009201930123524693409C
:103FD0000193012362469340009318E08242D0D9B6
:103FE00000220023009201930A9B002B01D01C6049
:103FF0005D600098019902B01CBC90469946A246AB
:10400000F0BDA342D7D9002200230092019363465A
:10401000002BE9D0FB079846414672080A437B080B
:1040200066460EE0AB4201D1A2420CD8A41A9D41D3
:10403000012024196D410021013E24184D41002E1C
:1040400006D0AB42EED9013E24196D41002EF8D1C5
:1040500000980199534600196941002B23DB2B007E
:104060005246D3402A006446E2401C0053461500E5
:10407000002B2DDB26005746BE4033002600674646
:10408000BE403200801A994100900191ACE762462F
:1040900020239B1A4A46DA406146130042468A4072
:1040A00017001F4380E7624620239B1A2A006646BA
:1040B0009A402300F3401343D4E7624620230021B3
:1040C0009B1A0022009101920122DA40019280E7BE
:1040D0002023624626009B1ADE402F00B04666462B
:1040E000B74046463B003343C8E7C046F0B583B00F
:1040F00016001F000090019100F020F804000D0050
:1041000002000B0030003900FFF704FF009A019B0A
:10411000121A8B41089920000A604B60290003B0F5
:10412000F0BDC04610B5002903D100F0DFF8203003
:1041300002E0081C00F0DAF810BDC046F0B54E46AB
:104140005746DE464546E0B50F00002183B0060025
:104150008946002F06DA3900002746428F410121A7
:1041600049428946002B07DA4946C943100089466F
:104170001900002342428B4134003D00924698468C
:10418000BB4269D866D041465046FFF7CBFF834615
:1041900039003000FFF7C6FF5B461B1A9C46203BE8
:1041A0009B4600D575E05146584681400B0051466C
:1041B000604681400A00BB4261D85ED034003D00B9
:1041C0005946A41A9D41002900DA7AE00021002016
:1041D00001260090019159468E40019661460126C4
:1041E0008E4061460096002950D0D90756085F08D6
:1041F0000E4363460EE0AF4201D1A6420CD8A41B89
:10420000BD41012124196D410022013B6418554133
:10421000002B06D0AF42EED9013B24196D41002B93
:10422000F8D1009801995B4600196941002B3DDBEC
:104230002E00DE4063462C00DC405B46002B4BDB4F
:1042400034005D46AC4023006446A6403200801A2C
:10425000994103E0B24296D9002000214B46002B41
:1042600004D003000C0000215842A14103B03CBC23
:1042700090469946A246AB46F0BDB1429ED9002178
:1042800000200090019161460029AED1009801996B
:10429000E4E72023624651469B1AD94040460091EC
:1042A00061468840030000990B4380E76246202363
:1042B0009B1A2A009A40260013006246D6401E43ED
:1042C000B8E7614620260127761A00200021F74032
:1042D00000900191019781E76746202362463500EF
:1042E000BC409B1ADD4023002B43ADE71C2101237A
:1042F0001B04984201D3000C10391B0A984201D3C9
:10430000000A08391B09984201D30009043902A2A6
:10431000105C40187047C04604030202010101010D
:08432000000000000000000095
:0843280040FCFF7F01000000D2
:104330004D61646520776974682041646121206261
:1043400079204D696B65202000000000010000000D
:10435000180000000100000001000000474E415419
:104360002056657273696F6E3A20436F6D6D756E7E
:104370006974792032303139202832303139303582
:1043800031372D37342900005F6164615F6D6169E9
:104390006E0000006E726635315F7376642D677053
:1043A000696F2E6164730000000000001F000000B0
:1043B000494E5055544F55545055540001060C0069
:1043C000434F4E4E454354444953434F4E4E45434D
:1043D000540000000108120044495341424C454436
:1043E00050554C4C444F574E50554C4C5550000076
:1043F0000109111700010300533053314830533184
:1044000053304831483048314430533144304831DA
:1044100053304431483044310105090D1115191D3F
:104420002100000044495341424C45444849474813
:104430004C4F570001090D10000203004C4F574824
:1044400049474800010408004F55545345545F50F4
:10445000494E305F4649454C445F5245534554539D
:104460004554000001181B004F5554434C525F50F7
:10447000494E305F4649454C445F5245534554438D
:104480004C45415201181D004C4F574849474800C0
:1044900001040800494E5055544F5554505554008E
:1044A00001060C004449525345545F50494E305F59
:1044B0004649454C445F52455345545345540000CA
:1044C00001181B00444952434C525F50494E305F23
:1044D0004649454C445F5245534554434C4541522F
:1044E00001181D004C4F5748494748000104080077
:1044F0004C4F57484947480001040800494E505561
:10450000544F55545055540001060C00494E505517
:10451000544F55545055540001060C0000000050F3
:1045200004040400040A0A0000000A1F0A1F0A1EED
:10453000050E040F1108040211040A040A140804E9
:104540000000000804040408020404040200040A31
:10455000040000040E0400000000040200000E002D
:1045600000000000000210080402010E1111110EDB
:1045700004060404040E1108041F0F100F100F0886
:104580000A091F081F010F100F0E0107090E0E0860
:104590000404040E110E110E0E111E100E00040064
:1045A000040000040004020004020400000E000ED7
:1045B00000000408040004080400040E111511068C
:1045C0000E111F11110F110F110F1E0101011E0FEE
:1045D0001111110F1F0107011F1F010701011E010A
:1045E0001D110E11111F11110404040404101010E8
:1045F000110E0905030509010101011F111B151108
:104600001111131519110E1111110E0F110F0101B6
:104610000E1111191E0F110F09111E010E100F1F7F
:1046200004040404111111110E11110A0A041515C4
:10463000150A0A110A040A11110A0404041F0804C5
:10464000021F0E0202020E01020408100E080808E2
:104650000E040A110000000000001F020400000008
:104660000F101E111E010F11110F0E1101110E104E
:104670001E11111E0E111F011E1E010701010E1138
:104680001E100F010F11111104000404041010106A
:10469000100F1109070911010101011E0A15151555
:1046A000150F111111110E1111110E0F11110F0112
:1046B0001E11111E100D130101011E010E100F011C
:1046C0000701110E111111191611110A0A041515FD
:1046D00015150A11110E111111111E100F1F0804CA
:1046E000021F04040204040404040404040408046F
:1046F0000400000A15000000446973706C617920A1
:10470000757064617465207374617274656420618E
:104710006C72656164790000612D65786365707401
:104720002E61646200000000000000000000000034
:10473000680300203D0A0000010000001E00000088
:104740006661696C7320746F2063616E63656C20B1
:10475000446973706C6179207570646174650000E0
:10476000646973706C61792E6164620001000000FD
:10477000010000000300000004000000020000002F
:10478000020000000100000008000000030000001B
:10479000030000000200000004000000030000000D
:1047A00005000000010000000900000001000000F9
:1047B00007000000020000000700000001000000E8
:1047C00002000000030000000600000002000000DC
:1047D00003000000010000000600000003000000CC
:1047E00001000000020000000500000003000000BE
:1047F00007000000030000000900000001000000A5
:10480000050000000200000006000000010000009A
:104810000300000003000000080000000200000088
:10482000010000000100000004000000030000007F
:104830000200000000000000446973706C61792080
:104840007570646174650000444953504C41592EA1
:10485000444953504C41595F5550444154455F546D
:10486000494D45522E54494D45525F4552524F5283
:104870000000000048480000612D72656174696D98
:104880002E6164620000000000CA9A3B0000000034
:104890000100000000000000000000000000000017
:1048A000FFFFFFFFFFFFFFFF000000000000008090
:1048B000FFFFFFFFFFFFFF7F01000000000000007F
:1048C0000000000000000000612D726574696465DD
:1048D0002E61646200000000000000000000000083
:1048E00000000000000000000100000000000000C7
:1048F000080000000849000008490000000000000E
:1049000058490000B04B00004144412E5245414CF3
:104910005F54494D452E54494D494E475F455645D4
:104920004E54532E54494D494E475F4556454E54BB
:104930000000000058490000444900000100000048
:1049400001000000511C0000060000004449000066
:1049500000000000E8480000092800000D1D0000CC
:10496000F5270000A11C0000F51C0000291D000017
:104970004C490000732D6262696E74652E61646239
:10498000000000000B0000001000000000E100E04B
:1049900061000000E02000002820000084200000CA
:1049A00056200000E0200000B2200000FA1F0000A6
:1049B0000500000053797374656D2E42422E4350FA
:1049C000555F5072696D6974697665732E474E4103
:1049D000545F4572726F725F48616E646C65723AC3
:1049E00020756E65787065637465642072657365A3
:1049F0007400000053797374656D2E42422E43504B
:104A0000555F5072696D6974697665732E474E41C2
:104A1000545F4572726F725F48616E646C65723A82
:104A2000206E6F6E2D6D61736B61626C6520696EB7
:104A3000746572727570740053797374656D2E426B
:104A4000422E4350555F5072696D69746976657383
:104A50002E474E41545F4572726F725F48616E64BB
:104A60006C65723A2068617264206661756C7400CE
:104A700053797374656D2E42422E4350555F5072C8
:104A8000696D6974697665732E474E41545F45724E
:104A9000726F725F48616E646C65723A2062757302
:104AA000206661756C74000053797374656D2E42D5
:104AB000422E4350555F5072696D69746976657313
:104AC0002E474E41545F4572726F725F48616E644B
:104AD0006C65723A207573616765206661756C74E8
:104AE0000000000053797374656D2E42422E4350CE
:104AF000555F5072696D6974697665732E474E41D2
:104B0000545F4572726F725F48616E646C65723A91
:104B100020756E68616E646C6564207472617000EB
:104B200003010010010000000A09020E01080B0F2A
:104B300006000000732D6262696E74652E61646206
:104B4000000000001B00000000000000000000004A
:104B500008000000644B0000644B000000000000EF
:104B6000B04B000053595354454D2E42422E5449E8
:104B70004D494E475F4556454E54532E54494D4975
:104B80004E475F4556454E5400000000B04B0000B4
:104B90009C4B00000100000001000000ED27000018
:104BA000030000009C4B000000000000484B000088
:104BB00009280000B9280000F5270000A44B0000D8
:104BC00000000000000000000100000000000000E4
:104BD000732D746170726F622E6164620000000058
:104BE00000000000FFFFFFFF53797374656D2E54C2
:104BF00061736B696E672E496E697469616C697A5D
:104C0000653A204D61696E20435055206973206ECE
:104C10006F7420746865206D6173746572206F6EA7
:104C200065000000030000000000000001000C000F
:104C300014001E002D003B004D005F006A00810043
:104C40009500B000D800EA00FA000B013101000025
:104C5000554E41435449564154454452554E4E4198
:104C6000424C455445524D494E41544544414354AC
:104C7000495641544F525F534C454550414343457B
:104C800050544F525F534C454550454E5452595F16
:104C900043414C4C45525F534C4545504153594E4E
:104CA000435F53454C4543545F534C454550444541
:104CB0004C41595F534C4545504D41535445525F0B
:104CC000434F4D504C4554494F4E5F534C45455012
:104CD0004D41535445525F50484153455F325F53F5
:104CE0004C454550494E544552525550545F5345DA
:104CF000525645525F49444C455F534C45455049D7
:104D00004E544552525550545F5345525645525F8A
:104D1000424C4F434B45445F494E544552525550C7
:104D2000545F534C45455054494D45525F5345528D
:104D30005645525F534C4545504153545F5345527D
:104D40005645525F534C4545504153594E43485286
:104D50004F4E4F55535F484F4C44494E5445525265
:104D60005550545F5345525645525F424C4F434B4A
:104D700045445F4F4E5F4556454E545F464C414754
:104D8000000000000109121952554E4E41424C4597
:104D900053555350454E44454444454C4159454470
:104DA00000080000010000001600000001000000E3
:104DB0001F0000000100000021000000496E206C6F
:104DC000617374206368616E63652068616E646CF2
:104DD00065720000507265646566696E6564206581
:104DE0007863657074696F6E2072616973656420A1
:104DF000617420005573657220646566696E656430
:104E000020657863657074696F6E2C206D657373AF
:104E10006167653A2000000000000000010000000A
:104E20000100000000000000244E00005F5F676E7C
:104E300061745F6D616C6C6F6300000000100000B6
:104E4000000000000002000001000000000200005D
:104E50000101000000000080732D736563737461AD
:084E60002E61646200000000F5
:104E68000000000000000000000000000D0000002D
:104E78000E0000000F000000040000000500000004
:104E880006000000070000000800000009000000FC
:104E98000A0000000B0000000C00000000410000A8
:104EA8002900000048480000000000000000000041
:104EB80000000000000000000000000000000000EA
:104EC80000000000000000000000000000000000DA
:104ED80000000000000000000000000000000000CA
:104EE80000000000000000000000000000000000BA
:104EF80000000000000000000000000000000000AA
:104F08001B0000000000000000000000000000007E
:104F18000000000000000000000000000000000089
:104F28000000000000000000000000000000000079
:104F3800FFFFFFFFFFFFFFFF000000000100000070
:104F48000000000000000000FFFFFFFFFFFFFFFF61
:104F58000000000000000000000000000000000049
:104F68000000000000000000000000000000000039
:104F78000000000000000000000000000000000029
:084F8800000000000000000021
:0400000300003C3984
:00000001FF
